:020000040800F2
:10000000A0070020890100083F1C00083B160008DB
:100010003D1C0008AF020008EB1E000800000000B5
:10002000000000000000000000000000431C000869
:10003000B102000800000000411C0008451C000837
:10004000A3010008A3010008A3010008A301000800
:10005000A3010008A3010008A3010008A3010008F0
:10006000A3010008A3010008A3010008A3010008E0
:10007000A3010008A3010008A3010008A3010008D0
:10008000A3010008A3010008A3010008A3010008C0
:10009000A3010008A3010008A3010008A3010008B0
:1000A000A3010008A3010008A3010008A3010008A0
:1000B000A3010008A3010008A91C0008A30100086F
:1000C000A3010008A3010008A3010008A301000880
:1000D000A3010008A3010008A3010008A301000870
:1000E000A3010008A3010008A301000800F002F822
:1000F00000F03AF80AA090E8000C82448344AAF188
:100100000107DA4501D100F02FF8AFF2090EBAE885
:100110000F0013F0010F18BFFB1A43F0010318473B
:10012000203C0000403C0000103A24BF78C878C151
:10013000FAD8520724BF30C830C144BF04680C60ED
:10014000704700000023002400250026103A28BF35
:1001500078C1FBD8520728BF30C148BF0B60704739
:100160001FB51FBD10B510BD00F06CF81146FFF7AC
:10017000F7FF02F0B7FA00F08AF803B4FFF7F2FFD6
:1001800003BC00F08DF8000009488047094800478B
:10019000FEE7FEE7FEE7FEE7FEE7FEE7FEE7FEE737
:1001A000FEE7FEE704480549054A064B7047000094
:1001B000A71C0008ED000008A0010020A0070020F7
:1001C000A0030020A00300204FF0000200B513465A
:1001D00094469646203922BFA0E80C50A0E80C5067
:1001E000B1F12001BFF4F7AF090728BFA0E80C5018
:1001F00048BF0CC05DF804EB890028BF40F8042B11
:1002000008BF704748BF20F8022B11F0804F18BF7D
:1002100000F8012B704770477047704710B500F029
:1002200009F8006810BD10B5044600F003F804603A
:1002300010BD000000487047400100200048704792
:10024000400100207546FFF7F9FFAE4605006946FC
:10025000534620F00700854618B020B5FFF7A2FFEF
:10026000BDE820404FF000064FF000074FF00008B7
:100270004FF0000B21F00701AC46ACE8C009ACE838
:10028000C009ACE8C009ACE8C0098D46704710B59C
:100290000446AFF300802046BDE81040FFF76DBF75
:1002A00001491820ABBEFEE7260002007047FEE7BA
:1002B000704772B6FEE7000070B5044600F004F91E
:1002C0000546601C02D004480078044400F0FCF8A5
:1002D000401BA042FAD370BD080000202DE9F84F62
:1002E000DFF8B8910024A9F1040B23460F2709F188
:1002F000040AABF1040EC9E00125A5402A40AA4238
:100300007DD1674ED1F804C0ACEB0608B44532D0BD
:1003100014DCBCF1030F3AD009DCBCF1000F2AD089
:10032000BCF1010F1CD0BCF1020F31D11DE0BCF1BA
:10033000110F17D0BCF1120F2AD119E0B8F5881FA0
:1003400019D006DCB8F5803F15D0B8F5801F1FD155
:1003500011E0B8F5001F0ED0B8F5041F18D10AE05F
:10036000CB6815E0CB681B1D12E0CB6808330FE0AB
:10037000CB680C330CE08B682BB1012B4FF00803DA
:1003800003D0456104E0042302E0056100E000239E
:10039000FF2A01D8064601E000F104064FEA840571
:1003A00001D9A5F12005D6F8008007FA05FC28EA56
:1003B0000C0803FA05F548EA0508C6F800804D6800
:1003C000ED0062D5374DAE6946F00106AE61AD690C
:1003D00024F0030605F001050095334D06EB050CEE
:1003E000DCF80850A607360F07FA06F825EA0805D4
:1003F000DFF8B880404503D14FF0000817E044E033
:10040000DFF8AC80404502D14FF001080FE0DFF883
:10041000A480404502D14FF0020808E0DFF8988040
:10042000404502D14FF0030801E04FF0040808FAFC
:1004300006F848EA0508CCF808804D68D9F800604D
:10044000ED024D4601D5164300E096432E604D68FF
:10045000DAF80060AD02554601D5164300E0964338
:100460002E604D68DBF80060AD035D4601D5164394
:1004700000E096432E604D68DEF80060ED0375469F
:1004800001D5164300E096432E60641C0D682A4691
:10049000E5407FF431AFBDE8F88F0000080401406B
:1004A000000011100010024000000140000801404F
:1004B000000C014000100140001401400AB101612C
:1004C00070470904FBE7000001488068704700009E
:1004D0000800002070B5040025D094F83D000025E8
:1004E00020B984F83C50204600F076FA242084F8A5
:1004F0003D002068016821F0010101602068016869
:1005000041F4004101602068016821F4004101606C
:1005100000F0BEFB4D4A6168914201D84C4900E0B1
:100520004C49884201D2012070BD4B492368B0FB81
:10053000F1F15E6826F03F060E435E606368934209
:1005400006D94FF4967359434FF47A73B1FBF3F124
:100550002368491C1E6A26F03F0631431962616810
:10056000914210D84900401EB0FBF1F2521CC2F378
:100570000B02042A01D2042022E0B0FBF1F0401C5F
:10058000C0F30B001CE0A268F2B301EBC10303EB64
:100590000116431EB3FBF6F35B1C43F480431B05BB
:1005A00049D092B301EBC10202EB0111401EB0FB36
:1005B000F1F0401CC0F30B0040F4804040F40040D8
:1005C0002168CA694CF6FF739A431043C861D4E9A5
:1005D000071001432068026822F0C0021143016045
:1005E000D4E9030101432068826848F2FF339A434B
:1005F00011438160D4E9050108432168CA6822F0EB
:10060000FF021043C86001E00EE016E020680168B8
:1006100041F0010101602564202084F83D0025633C
:1006200084F83E50002070BD01EB4106431EB3FB31
:10063000F6F35B1CB3E70120C2E701EB4101401E6A
:10064000B0FBF1F0401CC0F30B00B7E7A08601003F
:1006500080841E0000093D0040420F002DE9F84F44
:100660000025DDF82890984617468A4604460095EE
:10067000FFF72AFF064694F83D0020287AD1192377
:10068000012286492046009601F0E0F80028F5D1C5
:1006900094F83C0001286DD0012084F83C002068CB
:1006A0000168C90703D1016841F0010101602068B8
:1006B000016821F400610160222084F83D001020CF
:1006C00084F83E0025646762A4F82A80608D208546
:1006D0007348E06233464A465146204600F0C6FF62
:1006E00000287CD1208DDFF8BC81202768B101284B
:1006F00014D00228206801681ED041F48061016096
:100700002068416980690090BBE020684169816987
:100710000091016841F400710160B2E02068016855
:1007200021F48061016072B620684169816900919D
:10073000016841F400710AE041F40061016072B6A1
:100740002068416981690091016821F4806101603C
:1007500062B696E0032865D801280CD002284B46E3
:100760004FF000024146204600960BD001F06EF893
:10077000A8BB0CE090E032464946204601F00CF957
:1007800068BB71E001F062F848BB72B633E02068E4
:10079000016821F48061016072B620680069616AB5
:1007A0000870606A401C6062208D401E2085608D4C
:1007B000401E60853C4846F2A8110068B0FBF1F08D
:1007C000C0EBC00000EB80000090401E009007D0FE
:1007D00020684069C04340070DD50098F5E727E041
:1007E00044F8305F6773A573206940F020002061F2
:1007F00062B625731CE02068016841F40071016055
:1008000020680069616A0870606A401C6062218D1E
:10081000491E2185618D491E618562B6216809697D
:10082000017025E032464946204601F0B5F810B186
:100830000120BDE8F88F20680069616A0870606A6D
:10084000401C6062208D401E81B22185608D401E5B
:10085000608520684269D243520712D4032903D12C
:10086000016821F48061016020680069616A087094
:10087000606A401C6062208D401E2085608D401E95
:100880006085208D00287FF465AF84F83D7084F882
:100890003E5084F83C50CCE70220CAE7020010002A
:1008A0000000FFFF04000100140000202DE9F84FB4
:1008B0001F4690468A460446DDF82890FFF704FE5E
:1008C000054694F83D0020287FD119230122404994
:1008D0002046009500F0BAFF002876D194F83C003D
:1008E000012872D0012084F83C0020680168C90703
:1008F00003D1016841F0010101602068016821F421
:1009000000610160212084F83D00102084F83E0041
:1009100000262664C4F824806785608D20852D48D4
:10092000E0622B464A465146204600F015FF90B93A
:10093000206841698069009036E02A464946204691
:1009400001F062F850B1206C042804D120680168DD
:1009500041F4007101600120BDE8F88F606A2168F0
:1009600000780861606A401C6062618D491E618583
:10097000218D491E89B2218522685369DB435B07BB
:100980000BD451B100781061606A401C6062608DC8
:10099000401E6085208D401E20852A4649462046FF
:1009A00000F028FF0028CED1208D0028C5D154F8B2
:1009B0003D0B016841F400710160202004F81E091C
:1009C000E67766770020C7E7FFE70220C4E700006C
:1009D000020010000000FFFF10B586B0002100915A
:1009E00001910291039100680F4988421AD10F4C7E
:1009F000A06940F00800A061A069694600F0080005
:100A00000490C02000901220019003200390084819
:100A1000FFF764FCE06940F40010E061E06900F475
:100A20000010049006B010BD0054004000100240B9
:100A3000000C0140024881680278114481607047CF
:100A400008000020074810B5016841F0100101605E
:100A5000032000F075F80F2000F006F800F024F8ED
:100A6000002010BD0020024070B50D4D04464FF42B
:100A70007A712878B1FBF0F00A490968B1FBF0F00F
:100A800000F0CCFA48B9102C07D200222146501EA3
:100A900000F036F800206C6070BD012070BD0000D1
:100AA00008000020140000200C4808B5816941F0BE
:100AB00001018161816901F001010091C16941F089
:100AC0008051C161C06900F08050009004484168C5
:100AD00021F0E06141F00071416008BD001002406A
:100AE00000000140002809DB00F01F0201219140B5
:100AF0004009800000F1E020C0F8001170470000BC
:100B0000F0B40E4B1B680C46C3F30223C3F1070578
:100B1000042D00D90425191D072901D2002300E066
:100B2000DB1E012606FA05F1491E214099409E4030
:100B3000761E16403143F0BC01F0ECB90CED00E03C
:100B4000064900F0070208684FF6FF03184040EA24
:100B50000220034A10430860704700000CED00E0DB
:100B60000000FA052DE9F0470F46050061D0434E1D
:100B7000306800F00700B84209D2306820F0070062
:100B800038433060306800F00700B84251D128681F
:100B90003B4C810712D5400703D5606840F4E06004
:100BA00060602878000703D5606840F4605060609A
:100BB0006068A96820F0F000084360602878C007EA
:100BC00028D06868012810D02168022810D0890731
:100BD00000292EDA616821F0030101436160FFF70B
:100BE00073FC804641F288390DE021688903EFE704
:100BF0008901EDE7FFF768FCA0EB0801494502D940
:100C00000320BDE8F0876068696800F00C00B0EB75
:100C1000810FEFD1306800F00700B8420BD930687F
:100C200020F0070038433060306800F00700B84219
:100C300001D00120E5E72878400705D56068E9681C
:100C400020F4E060084360602878000706D56068FB
:100C5000296920F4605040EAC100606000F028F883
:100C60006168084AC1F30311515CC8400649086035
:100C700006480068FFF7F8FE0020C2E700200240A7
:100C800000100240083C0008140000200C00002066
:100C90000448054900684968044AC1F30221515CCF
:100CA000C84070471400002000100240183C0008A3
:100CB0000E4A51680E4801F00C03042B11D0082B8A
:100CC0000FD10C48C1F38343C903C05C0AD55168F6
:100CD000084AC1F34041921E515C054A5043B0FBA3
:100CE000F1F070470449484370470000001002408B
:100CF00000127A00F83B000800093D002DE9F84F8A
:100D0000040070D02078C04DC00749D06868C0F397
:100D10008100012807D06868C0F38100022809D14A
:100D20006868C00306D52868800339D56068002844
:100D3000E7D035E06068B0F5803F0BD010B1B0F57A
:100D4000A02F11D0286820F480302860286820F473
:100D5000802002E0286840F480302860606890B10C
:100D6000FFF7B2FB06460AE0286840F480202860BE
:100D7000F0E700BFFFF7A8FB801B642873D8286842
:100D80008003F7D50CE0FFF79FFB064605E000BFA8
:100D9000FFF79AFB801B6428F0D828688003F7D4FB
:100DA00020789A4E80074FF001094FF0000839D59E
:100DB000686810F00C0F07D06868C0F38100022843
:100DC00009D16868C00306D42868800714D5206953
:100DD000012808D110E02069B0B1C6F80090FFF7F3
:100DE00073FB074605E00AE1FFF76EFBC01B022814
:100DF000C4D828688007F7D52868616920F0F80012
:100E000040EAC10028600DE0C6F80080FFF75CFBF7
:100E1000074604E0FFF758FBC01B022823D82868C8
:100E20008007F7D4207800072CD57948A169D9B17B
:100E3000C0F80090FFF748FB074604E0FFF744FBCB
:100E4000C01B02280FD8686A8007F7D571484FF495
:100E5000FA510068B0FBF1F0009000BF0098411E0D
:100E60000091FAD20EE080E0C0F80080FFF72CFB82
:100E7000074604E0FFF728FBC01B022875D8686A04
:100E80008007F7D42078400760D5E8690027C000C4
:100E900008D4E86940F08050E861E869012700F073
:100EA000805000905C480168C90513D401688346EE
:100EB00041F480710160FFF707FB824606E000BF46
:100EC000FFF702FBA0EB0A0064284ED8DBF8000015
:100ED000C005F5D5E06801280AD008B1052813D06F
:100EE000286A20F001002862286A20F0040002E04D
:100EF000286A40F001002862E06841F2883B98B11E
:100F0000FFF7E2FA82460BE0286A40F0040028620C
:100F1000EEE700BFFFF7D8FAA0EB0A0159455AD80F
:100F2000286A8007F6D50CE0FFF7CEFA824605E086
:100F3000FFF7CAFAA0EB0A0159454CD8286A800786
:100F4000F6D41FB1E86920F08050E861E06988B309
:100F50006968C1F38101022944D00228C6F8608083
:100F600004D0FFF7B1FA044638E034E0FFF7ACFAFA
:100F7000074604E0FFF7A8FAC01B02282BD8286810
:100F80008001F7D4206AB0F5803F05D16868A16878
:100F900020F4003008436860D4E908010843696818
:100FA00021F4741108436860C6F86090FFF78CFA6A
:100FB000044606E025E000BFFFF786FA001B022882
:100FC00009D828688001F7D51BE000BFFFF77CFA3D
:100FD000001B022802D90320BDE8F88F2868800191
:100FE000F4D40EE00128F7D06868226A00F480315A
:100FF000914204D1616A00F47010884201D001204E
:10100000EAE70020E8E7000000100240000042424A
:1010100080044242140000200070004010B5401EC1
:10102000B0F1807F01D3012010BD4FF0E02460615A
:101030000F21601700F06EFF0020A06107202061E3
:10104000002010BD7047704770B590F83C20012A11
:1010500026D0012480F83C40022280F83D2003681D
:101060005A689D6822F070060A6832435A600D4B38
:1010700002689A4208D0B2F1804F05D00A4B9A42DA
:1010800002D00A4B9A4204D1496825F080031943E3
:10109000916080F83D40002180F83C10084670BD0A
:1010A000022070BD002C01400004004000080040F8
:1010B00010B5040003D094F83D0010B107E0012002
:1010C00010BD002084F83C00204600F01FF80220EC
:1010D00084F83D00211D206800F0ECFD012084F81B
:1010E000460084F83E0084F83F0084F8400084F80D
:1010F000410084F8420084F8430084F8440084F8F6
:10110000450084F83D00002010BD000008B50068CF
:101110000B49884212D10B48C16941F00401C161F9
:10112000C069002200F00400009011461E20FFF765
:10113000E7FCBDE808401E20FFF7D4BC08BD000056
:10114000000800400010024090F83D10012901D035
:1011500001207047022180F83D100168CA6842F002
:101160000102CA6000680B49884208D0B0F1804F84
:1011700005D00949884202D00849884204D18168D3
:1011800001F00701062903D0016841F00101016067
:1011900000207047002C014000040040000800407F
:1011A00070B5044690F83C000025012817D00126B0
:1011B00084F83C60022084F83D002068826822F0B8
:1011C000770222F47F4282600868502838D00DDC14
:1011D00020284FD005DC90B3102811D14AE002201E
:1011E00070BD302846D040280AD13BE060282FD07F
:1011F00070280DD0B0F5805F03D0B0F5005F12D03D
:10120000012584F83D60002084F83C00284670BD2C
:10121000CB68D1E90121206800F08FFD206881684A
:1012200041F0770109E0CB68D1E90121206800F0A5
:1012300084FD2068816841F480418160E1E719E024
:10124000CA684968206800F02DFE5021206806E039
:10125000CA684968206800F036FE6021206800F006
:1012600076FDCEE7CA684968206800F01BFE402181
:101270002068F4E7226801461046F0E7704770B531
:101280000446006801694FF00005C943890715D479
:10129000C168C943890711D4E91E01610120207783
:1012A000206880698007204602D0FFF7E7FF04E04E
:1012B00000F0BCF8204600F05FF92577206801694E
:1012C000C943490717D4C168C943490713D46FF00C
:1012D00004010161022020772068806910F4407FBA
:1012E000204602D0FFF7CAFF04E000F09FF8204636
:1012F00000F042F9257720680169C943090716D42F
:10130000C168C943090712D46FF0080101610420C4
:1013100020772068C0698007204602D0FFF7AEFF23
:1013200004E000F083F8204600F026F925772068D5
:101330000169C943C90617D4C168C943C90613D492
:101340006FF010010161082020772068C06910F457
:10135000407F204602D0FFF791FF04E000F066F8DE
:10136000204600F009F9257720680169C943C907BB
:1013700008D1C168C943C90704D1891E016120464B
:1013800000F04AF920680169C943090609D4C16817
:10139000C943090605D46FF0800101612046FFF7BB
:1013A00051FE20680169C943490609D4C168C9438F
:1013B000490605D46FF040010161204600F03CF978
:1013C00020680169C94389060BD4C168C9438906ED
:1013D00007D46FF0200101612046BDE87040FFF79F
:1013E00032BE70BD00B585B000210091019102911F
:1013F00003910068B0F1804F11D10A48816941F032
:10140000040181618069694600F0040004900720AE
:1014100000900220019003900348FEF75FFF05B0A3
:1014200000BD00000010024000080140704770B588
:10143000044690F83C0000260D4601280FD00120FC
:1014400084F83C006AB1042A1DD0082A2FD00C2A47
:101450003FD00126002084F83C00304670BD0220B9
:1014600070BD206800F07CFC2068816941F00801B3
:1014700081612068816921F00401816120688169AE
:101480002A69114311E0206800F092FC206881690C
:1014900041F4006181612068816921F4806181618A
:1014A000206881692A6941EA02218161D2E72068C6
:1014B00000F0AAFC2068C16941F00801C161206800
:1014C000C16921F00401C1612068C1692A69114321
:1014D00011E0206800F0C4FC2068C16941F400619B
:1014E000C1612068C16921F48061C1612068C1695E
:1014F0002A6941EA0221C161ACE710B5040003D0BA
:1015000094F83D0010B107E0012010BD002084F8E0
:101510003C00204600F01EF8022084F83D00211D0A
:10152000206800F0C7FB012084F8460084F83E00E4
:1015300084F83F0084F8400084F8410084F84200B9
:1015400084F8430084F8440084F8450084F83D00A2
:10155000002010BD08B50068B0F1804F08D10548E3
:10156000C16941F00101C161C06900F00100009052
:1015700008BD0000001002407047000010B504468E
:10158000022249B104290ED0082913D094F8410051
:10159000012816D0012010BD94F83E000128F9D191
:1015A00084F83E200FE094F83F000128F2D184F83F
:1015B0003F2008E094F840000128EBD184F8402057
:1015C00001E084F841200122206800F0A9FB0F49C6
:1015D0002068884203D1426C42F400424264206891
:1015E000884208D0B0F1804F05D00949884202D026
:1015F0000849884204D1816801F00701062903D017
:10160000016841F001010160002010BD002C014083
:101610000004004000080040064840F6B832416827
:10162000491C4160914204D3002141600178491C6A
:1016300001707047000000207047FEE701684A69AA
:10164000D24352050FD46FF480624A61002140F802
:10165000301F202242738173026942F0040202614A
:101660000173012070470020704700002DE9F84FFA
:101670000446C06A1E4693460D4621680A6842F435
:1016800080620A60082807D0012805D010F5803F45
:1016900002D0206B112804D12068016841F48071C8
:1016A00001604FF001195B46002249462046009632
:1016B00000F0CCF84FF4007840B120680068C00515
:1016C00001D5C4F840800320BDE8F88F2069DFF819
:1016D00084A0B0F5804F0FD00620216800EAD5170E
:1016E00047F0F000086133465A460AF106012046E9
:1016F00000F0F4F858BB03E0E8B240F001001CE051
:101700002168E8B2086133465A465146204600F047
:10171000E5F8E0B92068416981690091016841F408
:10172000807101605B46002249462046009600F029
:101730008DF80028C1D147F0F100216808613346D7
:101740005A465146204600F0C9F80028BCD0012076
:10175000BAE7000002000100F8B50446C06A1E4660
:101760000D461746082807D0012805D010F5803F00
:1017700002D0206B122804D12068016841F48071E6
:101780000160134600224FF001112046009600F040
:101790005DF840B120680068C00502D54FF40070C4
:1017A00020640320F8BD2069B0F5804F0ED00620DC
:1017B000216800EAD51040F0F000086133463A464F
:1017C0000B49204600F08AF878B902E005F0FE00E7
:1017D00000E0E8B221680861054933463A46891FAE
:1017E000204600F07BF80028DCD00120F8BD000086
:1017F0000800010070B516460D4604461EE020465E
:10180000FFF71CFF08B1012070BD681C16D0FEF761
:101810005BFE801BA84200D885B920684069C043A0
:1018200040070BD5002044F8300F20216173A073CE
:10183000216941F0200121612073E4E720684069BB
:10184000C0434007DBD4002070BD00002DE9F04705
:10185000984617460D460446C1F30746DDF820902A
:101860002AE000BFB8F1FF3F26D0FEF72DFEA0EB27
:101870000901414502D8B8F1000F1DD12068012EA1
:1018800016D0806925EA00000004000C12D0002068
:10189000B84211D1002044F8300F20216173A073A9
:1018A000216941F02001216120730120BDE8F0870A
:1018B0004069E7E70120EBE72068012E0AD0806944
:1018C00025EA00000004000C06D00020B842C9D070
:1018D0000020EBE74069F3E70120F7E72DE9F04747
:1018E000984616460D4604464FF000094FF0200A70
:1018F000C1F3074723E020684069C043400515D481
:101900002068016841F40071016021686FF4806013
:101910004861C4F8309084F83DA084F83E90216C72
:1019200041F00401216484F83C9021E0701C06D051
:10193000FEF7CAFDA0EB0800B04203D816B1012F94
:101940001FD021E02068012F15D0806925EA000012
:101950000004000C18D000BF44F8309F84F80DA09C
:1019600084F80E90216941F02001216184F80C90E7
:101970000120BDE8F087406925EA00000004000C62
:10198000EAD12068406901E02068806925EA00000A
:101990000004000CAFD1ECE72DE9F04100259046A2
:1019A0000E460446202728E04069C043C0060CD4F8
:1019B00054F8301B6FF01000486144F810596777F5
:1019C000A577206A2062257714E0FEF77DFDA0EB65
:1019D0000800B04200D886B920684069C04340067C
:1019E0000BD544F8305F6773A573206940F0200081
:1019F000206125730120BDE8F08120684169C94359
:101A00004906D1D40020F6E770B516460D460446C7
:101A10001EE02046FFF712FE08B1012070BD681CD1
:101A200016D0FEF751FD801BA84200D885B920686A
:101A30004069C04300060BD5002044F8300F202138
:101A40006173A073216941F0200121612073E4E7F3
:101A500020684069C0430006DBD4002070BD000050
:101A60002DE9F04385B000242448009401940294A9
:101A70000394816941F010018161816901F01001D5
:101A80000491816941F020018161816901F02001A7
:101A90000491816941F004018161816901F00401CF
:101AA0000491816941F0080181618069012200F09F
:101AB0000800DFF84C805503049029464046FEF7A5
:101AC000FDFCDFF840902F11002239464846FEF712
:101AD000F5FC0095022601250396CDE901546946DF
:101AE0004046FEF7FBFB00970396CDE9015469469B
:101AF0004846FEF7F3FB05B0BDE8F0830010024056
:101B000000100140000C01400D4810B50B49016068
:101B10000C49416000214FF480428160C0E903120A
:101B200041618161C1610162FEF7D4FC002803D0EC
:101B3000BDE81040FEF7BDBB10BD000000540040E2
:101B40005C000020801A060010B58AB000240794BB
:101B50001C2168460894FEF737FB1D484FF0804172
:101B6000C0E9001440F63F31C0E9024104618461DC
:101B7000FFF7C3FC08B1FEF79CFB079407A91448C4
:101B80000894FFF761FA08B1FEF793FB6020CDE9F6
:101B900000040294002269460D480494FFF747FCB4
:101BA00008B1FEF786FB042269460948FFF73FFCAF
:101BB00008B1FEF77EFB082269460548FFF737FCAF
:101BC00008B1FEF776FB0248FFF70CFC0AB010BD27
:101BD000B000002010B586B000241748009401948E
:101BE00002940394049413490594016040F2CF21B8
:101BF000C0E901146321C0E903148461FFF758FAB6
:101C000008B1FEF756FB4FF48050009069460A4831
:101C1000FFF7C6FA08B1FEF74CFB049404A9064886
:101C20000594FFF711FA002801D0FEF742FB06B039
:101C300010BD000000080040F8000020FEE7FEE7AD
:101C400070477047FEF7F6BE30B58FB02821684662
:101C5000FEF7BAFA14210AA8FEF7B6FA0121080421
:101C6000CDE900100024029402250491CDE907502B
:101C70004FF4E01009906846FFF740F808B172B6DB
:101C8000FEE70F20CDE90A054FF48060CDE90C4056
:101C900002210AA80E94FEF765FF002801D072B653
:101CA000FEE70FB030BD70470148FFF7E8BA00000B
:101CB000F8000020F0B50268164B174C174D4FF096
:101CC0008047984205D0B84203D0A04201D0A84234
:101CD00003D122F070064A683243984205D0B842D8
:101CE00003D0A04201D0A84203D122F44074CA68B4
:101CF00022434C6922F08002224302608A68C26259
:101D00000A688262984201D1096901630121416137
:101D1000F0BD0000002C014000040040000800401D
:101D200010B501F01F030121046A99408C4304623D
:101D3000016A9A401143016210BD10B5846842EAFD
:101D4000032224F47F440A432243826010BD826848
:101D500022F070020A4342F00701816070470000E0
:101D600030B5036A026A22F00102026242688469A5
:101D700024F073050C682C4323F002058B682B4379
:101D80000A4DA8420BD123F00805CB6822F440721B
:101D90002B434D6923F0040315438A692A434260AB
:101DA000846149684163036230BD0000002C01403A
:101DB00030B5026A036A23F0100303624368846942
:101DC0000D6824F4E64444EA05248D6822F02002DC
:101DD00042EA05120B4DA8420ED1CD6822F08002D6
:101DE00042EA05124D6923F4406343EA85038D6995
:101DF00022F0400243EA85034360846149688163BD
:101E0000026230BD002C014030B5036A026A22F440
:101E1000807202624268C46923F4007324F073057F
:101E20000C682C438D6843EA05230C4DA8420ED163
:101E3000CD6823F4006343EA05234D6922F4405240
:101E400042EA05128D6923F4806342EA051242607A
:101E5000C4614968C163036230BD0000002C0140C9
:101E600030B5046A026A22F4805202624268C36991
:101E70000D6823F4E64343EA05238D6824F40054F7
:101E800044EA0534064DA84204D14D6922F480424B
:101E900042EA85124260C36149680164046230BD50
:101EA000002C014010B5036A046A24F001040462A6
:101EB000846924F0F00444EA021423F00A020A437D
:101EC0008461026210BD10B5036A046A24F0100434
:101ED0000462846923F0A00324F4704444EA0232CB
:101EE00043EA01118261016210BDFEE7490050EA38
:101EF000C12018BF04204A0D18BF40F0010040F275
:101F0000FF72B2EB515F08BF40F00200012808BF2A
:101F1000052070470907090E002804DB00F1E020C6
:101F200080F80014704700F00F0000F1E02080F806
:101F3000141D70472DE9F74F144694B00021C4E9F1
:101F400002111599079121F00045C9498D4206DC1F
:101F50001599C4E9000117B00020BDE8F08FC5490C
:101F6000DFF814A3A9423CDD0799C44E0029C44FF1
:101F7000C44A1599534619DD01F0EEF9554506D0CE
:101F8000C14AC24B01F0E8F9C4E900010AE04FF090
:101F9000D352BE4B01F0E0F932463B4601F0DCF98A
:101FA000C4E9000117B00120BDE8F08F00F082FD08
:101FB000554506D0B44AB54B00F07CFDC4E900019C
:101FC0000AE04FF0D352B14B00F074FD32463B466D
:101FD00000F070FDC4E9000117B04FF0FF30BDE81C
:101FE000F08FAB49A942159978DB21F00041834677
:101FF0008846A84AA84B00F0BFFF0022A74B00F07C
:1020000059FD00F05FFF099000F08BFF06460F4678
:102010009C4A534600F0B0FF43465A4601F0AAF8E6
:1020200080468A46984A994B3046394600F0A4FFCC
:102030002A0D01250B924246534601F09BF8032DD1
:10204000C4E9000139D00B98C1F30A51401A05EBDD
:1020500045111139814230DA9148C346784400EB8A
:102060000510CDF80CA00C90D0E90023304639467D
:1020700000F082FF02460B460491069058460399F1
:1020800001F06AF980468A4602460B465846039993
:1020900001F062F9049B069A01F05EF983460C9800
:1020A00003913946D0E90223304600F065FF5A46D5
:1020B000039B01F051F96D1CBDE707980028A2BFF2
:1020C000099817B0BDE8F08F616881F00041616048
:1020D000099817B04042BDE8F08FFFE78446159895
:1020E000C1F31301C0F30A50A0F2F5304FEA6018B3
:1020F00000F01F06C6F12000139000200690079004
:1021000041F4801E05206D4676B1664A08EB000159
:102110007A4452F8213002EB8101B3404A681399A6
:1021200022FA01F1194305E05F4908EB0002794406
:1021300051F82210A1FB0E27A1FB0C131A449A425E
:1021400034BF0123002303EB070A05EB8003D3E927
:1021500001B70F448F4234BF0121002193448B44C7
:1021600011B1934502D903E0934501D2012100E06A
:102170000021C3E901B7514445F82010011EA0F128
:102180000100C1DC0298059F00F10050800F129001
:102190000298DDE90356800000F0C3FE834628461E
:1021A0000D9100F0D5FE6FF01D0201F0B8FCCDE9F5
:1021B0000E01304600F0CCFE6FF03D0201F0AFFCA6
:1021C00080468A46384600F0C3FE6FF05D0201F09B
:1021D000A6FC074642465346119100F06BFCDDE930
:1021E0000E2300F067FC5A460D9B00F063FC0025AF
:1021F0000E465A4628460D9B01F0AEF8DDE90E2347
:1022000001F0AAF84246534601F0A6F83A46119B5F
:1022100000F0B0FFDFF898A0244A534600F0ACFE6F
:1022200007468846234A244B3146284600F0A4FE40
:102230003A46434600F03EFC074688464FF0A84227
:1022400053463146284600F097FE3A46434600F092
:1022500031FC159A12F0004F04D0129A81F000411F
:1022600052421292C4E90001129817B0BDE8F08FF3
:10227000FB21E93F7CD90240FB21F93F7370032E1B
:102280008A19A33B000040543163621A61B4D03D07
:10229000FB21394183C8C96D305FE43F0000E03F56
:1022A000F01B00006C1B00004E1B0000182D445456
:1022B000FB21F93D3326A611460B113C2DE9FF4DBC
:1022C00021F0004807460C46B8F1795F08DA00F0C3
:1022D000F9FD002801BF0020324904B0BDE8F08DAF
:1022E0003A4623461046194600F046FE0546024689
:1022F0002D480E460B460621784400F05DF82A462C
:10230000334600F039FEDDE9022382468B4638462B
:10231000214600F031FE04460F4652465B462846F1
:10232000314600F029FE22463B4601F015F80746EB
:102330008A464FF0FF322846314601F0F0FB1B4A37
:1023400090450ADA3A46534601F006F804B00022F6
:10235000BDE8F04D134B00F00DBF154A4245A8BF34
:10236000A8F500154FF00004B8BF124D22462B46C9
:1023700000F0F2FF0646884622462B460020094917
:1023800000F0EAFF04460D463A46534630464146C1
:1023900000F0E2FF04B022462B46BDE8F04D00F00D
:1023A000E9BE00000000F03F241900003333D33FA2
:1023B0000000E93F0000D23F2DE9F0414F1E00EB45
:1023C000C7010446D1E9000115461E4637F0060252
:1023D0000DD02A46334600F0CFFD7F1E04EBC70325
:1023E000D3E9002300F066FB37F00602F1D1022F9B
:1023F00025D0042F13D0062F18BFBDE8F0812A4640
:10240000334600F0B9FDD4E90A2300F053FB2A4615
:10241000334600F0B1FDD4E9082300F04BFB2A4617
:10242000334600F0A9FDD4E9062300F043FB2A4619
:10243000334600F0A1FDD4E9042300F03BFB2A461B
:10244000334600F099FDD4E9022300F033FB2A461D
:10245000334600F091FDD4E90023BDE8F04100F0DF
:1024600029BB00002DE9FF4D054621F0004084B056
:102470000C46B0F1795F0BDA2846FFF737FD0428E8
:1024800008BF00F06FF8284608B02146BDE8F08D7F
:102490002A460B46104600F06FFD06460F462A46B8
:1024A000234600F069FD804626488A4632463B4670
:1024B00005217844FFF780FF83461098029160B3AE
:1024C000214A224B4046514600F056FDCDE900011D
:1024D0005A4640465146029B00F04EFD82468846D1
:1024E000DDE906014FF0FF3201F019FB5246434689
:1024F00000F032FF32463B4600F03EFDDDE90623A8
:1025000000F02AFFDDE9002300F026FF08B02A468C
:102510002346BDE8F04D00F02DBE0B465A4630462E
:10252000394600F029FD084A084B00F0C3FA42463C
:10253000534600F021FD08B02A462346BDE8F04D81
:1025400000F0B8BA62180000495555555555C5BF39
:10255000012201F0E4BA002213461046114600F0B1
:1025600059BB0000024A0020110701F0D8BA000050
:1025700001FDFFFF14210807416300218163C1634E
:102580006420FDF799BE000010B500F00DF801F0D1
:102590003FF9044901F050F9BDE810406FF00B011C
:1025A00001F0EBBA0000B4433EB5002001900B20CF
:1025B0000C2400908DF808406C2102AA01230748E2
:1025C000FEF774F901AA02236D2104480094FEF776
:1025D00045F8BDF8040040BA3EBD00005C00002094
:1025E00010B5044C00206060FFF7DEFF01F010F929
:1025F000206010BD1800002000B5244B21F00042DF
:1026000087B09A42DCBF0022134629DD204B9A4254
:1026100008D140B94FF00100FDF705FEFFF79BFF21
:1026200007B000BD03DBFFF793FF07B000BD02AAB0
:10263000FFF780FC10F0030104BF0DF1080C9CE8CB
:102640000F000DD0012001290ED0022914D00DF168
:10265000080C00909CE80F00FFF704FF07B000BDD6
:10266000FFF72CFE07B000BD0DF1080C00909CE8B0
:102670000F00FFF7F7FE05E00DF1080C9CE80F00D6
:10268000FFF71CFE07B081F0004100BDFB21E93FD0
:102690000000F07F70B515460C460646FFF774FF44
:1026A0000E4A0146A061904202DA81F0004002E049
:1026B0000B4801F08DF9E660A061204600F06CF84F
:1026C0002946206A00F092F84FF08040E9684163A3
:1026D000296981636969C16370BD000000003443EA
:1026E0000000B443FEF7AEF9FFF7AEFAFFF7B8F912
:1026F000FFF72AFAFFF76EFAFFF706FA00211F48E4
:10270000FEF73CFF04211D48FEF738FF08211B4857
:10271000FEF734FF1A48FEF717FD1B48194900243D
:10272000C0E900148460FFF75BFF012251021748E3
:10273000FDF7C4FEFFF71EFF4FF080404463846343
:10274000C463134E134C4FF07E55217801290AD0F3
:1027500002290CD00329F8D30B4A0B49183A002060
:10276000FFF798FFF1E708492846183902E00649C3
:102770003046183900F03AF8E7E70000B0000020D2
:10278000F8000020CDCCCC3C38000020000C0140EB
:10279000000080BF000000202DE9F041044681695F
:1027A000C06801F015F9054620612946E06900F08E
:1027B000E9FEE06107462846616901F009F9A16870
:1027C00001F03AF806463946606801F035F80746E8
:1027D0002946206801F030F8394600F0D3FE314632
:1027E00000F0D0FE65612062BDE8F0812DE9F05F68
:1027F0000C460546FFF7C8FE534901F01DF8534942
:1028000001F01AF8524900F025FF52494FF0814A71
:102810008D4201D90D4602E0554500DD554600F0D8
:1028200085FE8B46064600F09DF80746884685F0F3
:10283000004000F07BFE3A46434600F09DFB00F06E
:1028400007F9814630465946FFF7D6FE06460F4641
:10285000284600F06BFE32463B4600F08DFB00F050
:10286000F7F805465146484600F08CFE2060484681
:1028700000F05CFE07468846284600F057FEDFF869
:10288000D8A005460E460020514600F0BBF82A4667
:10289000334600F071FB3A46434600F05DFD4FF0D1
:1028A000FF373A4601F03BF9DFF8B080002243469B
:1028B00000F000F900F0CCF860600020514600F014
:1028C000A1F82A46334600F057FB05460E4689F02C
:1028D000004000F02BFE2A46334600F03DFD3A460C
:1028E00001F01DF90022434600F0E4F800F0B0F8D2
:1028F0000546A060BE1E3146206801F03EF9DFF8B3
:102900006080414600F098FF00F066FF0746E060F7
:102910003146606801F031F9414600F08DFF00F06A
:102920005BFF20613146284601F027F9414600F05F
:1029300083FF00F051FFB10760614F632069886336
:102940006069C863BDE8F09F0000E040DB0F4940CC
:1029500000003443000080C0000008400000104028
:102960000000344500B5254B21F0004287B09A4263
:1029700003DC0022134600922BE0214B9A4208D13F
:1029800040B94FF00100FDF74EFCFFF7E4FD07B042
:1029900000BD03DBFFF7DCFD07B000BD02AAFFF7B7
:1029A000C9FA10F003014FF001000DD0012914D035
:1029B00002291AD00DF1080C9CE80F00FFF77EFCED
:1029C00007B081F0004100BD0DF1080C00909CE8BB
:1029D0000F00FFF747FD07B000BD0DF1080C9CE8A4
:1029E0000F00FFF76BFC07B000BD0DF1080C009065
:1029F0009CE80F00FFF736FDE2E70000FB21E93F0E
:102A00000000F07F2DE9F04106460F4600F0BEFBC6
:102A1000041E0D4618BF0120284320F00040C0F1DD
:102A20007F6000F1E040C00F0ED0301C18BF0120C5
:102A3000384320F00040C0F17F6000F1E040C00F5B
:102A400004BF0120FDF7EFFB20462946BDE8F081D9
:102A500021F00042A2F16052B2F5801F01F0004364
:102A600028BFD2F17F6C0BD95FEA001C43EAC20297
:102A700042EB507018BF704728BF20F0010070472C
:102A8000B2F5801FBCBF184670474FEA410C1CF5D9
:102A9000001F02D2084600F096BF70B500F016FB8A
:102AA00000000089FFF7F6BF4FF00040A0F580005E
:102AB0007047000010B591EA030F48BF83F0004350
:102AC00000F15284841A71EB030C05D2121943EB06
:102AD0000C03001B61EB0C01DFF824E14FEA1154F9
:102AE000A4EB135C1EEA430F18BF9EEA445F73D049
:102AF00023EA0E03DCF1200E21EA045143F4801393
:102B000032D322FA0CFE10EB0E0023FA0CFE41EB3E
:102B10000E01CCF1200E03FA0EFE10EB0E0051F167
:102B20000001B1F5801FCCF1200E32D201EB04512F
:102B300012FA0EF2BDE8104058BF7047401C38BF73
:102B40005FEA420218BF7047002814BF20F001005E
:102B500041F100014FEA410313F5001F38BF7047F0
:102B6000A1F1C04100F000BB012A43EB0302ACF12C
:102B7000200CDCF11F0E32BF4FF0000E23FA0CF3D5
:102B800010EB030041EB0451B4EB115FD0D0A1EB8B
:102B9000045101F5801149085FEA300001EB04514E
:102BA0000ED350F1000038BF12FA0EFE08D1BDE876
:102BB0001040C9E7401C38BF5FEA4202CAD1C3E7F0
:102BC000BDE810404FEA410313F5001F38BF7047BE
:102BD000A1F1C04100F0C8BA9EEA445F08D011EAF2
:102BE0005E0FBDE8104004BF01F0004100207047B7
:102BF000BDE8104070B500F069FA00BF64FBBE3E4E
:102C00000000E0FF02494FF0000000F056BF00BF97
:102C10000000F87F2DE9C04130B4DFF8A0C23CEAE3
:102C2000111418BF3CEA131400F0EC8081EA03058C
:102C30001CEA111444EAD57418BF1CEA131500F0FD
:102C4000C780A4EB05044FF0004545EAC12145EAE1
:102C5000C32341EA505143EA525304F17F7499422D
:102C600004F500344FEAC0204FEAC22208BF904268
:102C700000F09C804FEA13650FF24016765D4FEA34
:102C8000134506FB05F7C7F1807706FB07F74FEA08
:102C9000D737A7FB03687642C8F58038A7FB06CE76
:102CA00038BFA8F1010807FB08E64FF0000EA6FBAD
:102CB000028CE6FB03CEDCF1000CCEF1004E38BFF7
:102CC000AEF1010EA6FB0C584FF000074FF00005C7
:102CD000E6FB0E87A1FB08C6A0FB07CE16EB0E068F
:102CE00045F10005E1FB076515F1E04E7EBFA4F557
:102CF00080345FEA46066D4116F1800745F1000514
:102D00004FEA17274FEA066647EA0567A6F1DE464F
:102D1000B6F1805F4FEA15251FD9384624F0010C23
:102D200005EBC471BCF1FE6F01EB0C1102D8F0BCD5
:102D3000BDE8008124425CBF01F5801E9EEAC47F8D
:102D400002D4F0BCBDE80081244238D4F0BCA1F12B
:102D5000C041BDE8004100F007BA4FEAD22242EA82
:102D600043524FEAD323A7FB02864FEAD02040EA22
:102D7000415007FB03661EEA0E0F4FEAD12105FB07
:102D8000026658BFA6EB0056B6EB00564FEA520E4D
:102D90004EEAC37E18EB0E0E56EB530EBDD518EB64
:102DA00002085E417F1C55F10005B6E74FF480151F
:102DB0004FF000074FF000064FF00008ADE7F0BC01
:102DC0004FF0000001F1C04101F00041BDE8008179
:102DD00011EA0C1F0CEA131500D00CE013EA0C1FCB
:102DE00000F025804FF00000F0BC81EA030101F003
:102DF0000041BDE80081F0BCBDE8004181EA03016B
:102E000000F0B2B9F0BCBDE8004170B500F05EF969
:102E1000097EFC3E00F007B881EA03014FF0000094
:102E200001F00041704781EA030100F09DB9F0BC58
:102E3000BDE800414FF0000021497047FFFDFBF95C
:102E4000F7F5F4F2F0EEEDEBE9E8E6E4E3E1E0DEDD
:102E5000DDDBDAD8D7D5D4D3D1D0CFCDCCCBCAC84F
:102E6000C7C6C5C4C2C1C0BFBEBDBCBBBAB9B8B776
:102E7000B6B5B4B3B2B1B0AFAEADACABAAA9A8A869
:102E8000A7A6A5A4A3A3A2A1A09F9F9E9D9C9C9B37
:102E90009A999998979796959594939392919190E2
:102EA0008F8F8E8E8D8C8C8B8B8A89898888878773
:102EB0008685858484838382828181800000FF07E8
:102EC0000000F87F4FEA41034FEA5353A3F58063B4
:102ED000D3F11E03C8BFD3F1210C0CDD4FF000422B
:102EE00042EAC12242EA505232FA03FC8CEAE17C07
:102EF000ACEBE1707047102BC4BF0020704703F5A6
:102F0000787CBCF1FF3F04D06FF0004282EA2100E0
:102F1000704770B500F0DAF84992248000207047BD
:102F2000F2E710F0004248BF4042B0FA80F310FAD6
:102F300003F10AD0C3F11D0303F580634FEA41504A
:102F400002EB035202EBD12170474FF000007047B3
:102F5000B0FA80F310FA03F10AD0C3F11D0303F5B0
:102F600080634FEA41504FEA035202EBD121704790
:102F70004FF0000070470000DFF848C170B51CEA50
:102F8000111E1EBF1CEA13159EEA0C0F95EA0C0FCA
:102F900000F06F8081EA030423EA4C134EEAD47EEA
:102FA00021EA4C1141F4801143F48013AE44A1FB9B
:102FB000024CA0FB0365AEF17F7E361955EB0C0584
:102FC000A1FB034C4CF10003A0FB021C16EB0C060A
:102FD000654153F10003094218BF46F0010613F49E
:102FE000007F0BD14FEA03314FEA0530340341EA49
:102FF000155140EA16506FF003020AE04FEAC32170
:103000004FEAC520F40241EA555140EA56506FF0AC
:10301000020202EB2E4201EB025585EACE710AD084
:103020005FEA440C18BF24F0004450F1000041F165
:10303000000120EAD47040F2FE7C624500D270BDEF
:10304000A84214BF4FF080444FF04044002E08BF08
:103050000024BEF1806FA8BFA1F1C041BDE870405F
:1030600080F282804FF0000001F1C04101F0004188
:1030700070479EEA0C0F0CEA131518BF95EA0C0F67
:1030800006D04FF0000081EA030E0EF0004170BD43
:1030900000F01CF88900013E00F007B800F009B804
:1030A0004FEA430C5FEA5C5C08D081EA030100F060
:1030B0005BB84FEA410C5FEA5C5CF6D14FF0000070
:1030C000014970470000FF070000F87F0EF1020E73
:1030D0002EF0030E5EF8046B364205D4012A43EB52
:1030E000030515F5001F12D8012841EB010C1CF552
:1030F000001F0CD80ED14FEAD17C15F5001F0CEB48
:103100004C0C0CF1020C08BF4CEBD37C04E04FF0EC
:10311000080C01E04FEAD37C0CEB4C0526FA05F6CF
:1031200006F00706B6F1040C06D20EEB860CBDE8DD
:1031300070404CF0010C6047DFE80CF0090B020214
:103140004FF000414FF00000A1F5002170BD19467D
:103150001046012851EB010418BFD4F5001484BFB8
:10316000002001F0004170BD0808A0F500114FEAF1
:103170003101704791EA030F10B581F000413FF52E
:10318000A1AC83F0004300F0EFB800002DE9F0415E
:1031900001F5801CBCF5001FC0F2C3804FEA115C32
:1031A00021EA0C510CF1FD0C41F480115FEA5C0C3A
:1031B0000CF5C07C01D3400049413DA4890241EA9D
:1031C000905187028E0E0A0CA45D04FB04F602FBEC
:1031D00006F6C6F14046A4FB0662F60D46EA422614
:1031E00006FB06F4A4FB01235242C3F1404338BF5F
:1031F0005B1EA6FB02420024E6FB0324D20B42EA3C
:103200004446A6FB0623A1FB02E2A3FB07E4A418A5
:103210004FF0000252F10002E3FB01426442C2F1AE
:10322000404E38BFAEF1010EA6FB04234FF0000262
:10323000E6FB0E32A2FB03464FF00004B61954F130
:103240000004E2FB0264A1FB06E6A4FB07E816EB20
:1032500008064FF0000858F10008E4FB01687642C8
:10326000C8F1405838BFA8F10108A2FB06E4A3FB4F
:1032700008E52D194FF0000454F10004E2FB085456
:10328000A1FB05E6A7FB04E818EB06084FF00006D3
:1032900056F10006E1FB048618F1200556F1000600
:1032A000A809A8F11B08B10908F03F08B8F10A0FF6
:1032B00040EA86601CD901EB0C51BDE8F08100BFEB
:1032C000FCF5EEE8E2DDD8D3CFCBC7C3C0BDB9B6BD
:1032D000B4B1AEACA9A7A5A3A19F9D9B9A989695C2
:1032E0009392908F8D8C8B89888786858483828149
:1032F000A0FB006800FB01F208EB4208B8EB87284E
:1033000007D5341858EB0104D5D5401C51F1000104
:10331000D1E7341A78EB0104CDD4401E71F10001DD
:10332000C9E75FEA4C0C5FEA9C5C0DD105D34FF016
:10333000000001F00041BDE8F081BDE8F04170B54A
:10334000FFF7C4FE6DDBFFBEBDE8F0414FF00000AB
:10335000004970470000F87F10B591EA030F48BF9D
:1033600083F000433FF5AEAB841A71EB030C07D238
:1033700012198CF0004C43EB0C03001B61EB0C01A9
:10338000DFF8A4E14FEA1154A4EB135C1EEA430FEB
:1033900018BF9EEA445F00F0B08023EA6E035242F9
:1033A00021EA0451C3EB6E0338BF5B1EDCF1200E33
:1033B00025D322FA0CFE10EB0E0043FA0CFE41EB73
:1033C0000E01CCF1200E03FA0EFE10EB0E0051F1AF
:1033D0000001CCF1200E29D412FA0EF201EB0451B7
:1033E000BDE8104058BF7047401C1CBFB2F1004FF1
:1033F000704700280CBF491C20F00100704712EBF9
:10340000020E43EB030218BF4FF0010E4EEA4202D8
:10341000ACF1200CDCF11E0E54D943FA0CFE10EB7B
:103420000E0051F1FF31CCF11E0ED5D50EF1010E7B
:1034300012FA0EFE404141EB010101EB445C5FEAF0
:103440005C5C10D910EBDE7001EB045138BFBEF1AB
:10345000004FBDE8104018BF704700280CBF491C42
:1034600020F00100704730D24FEAD42C11F5001142
:1034700024F400641BD0B1FA81F20B3AA41AA41E02
:10348000D2F12003914030FA03F31943904001EB4D
:10349000CC71002C01EB0451BDE81040A8BF70476F
:1034A00001F1C0414FF0000001F000417047B0FA57
:1034B00080F310FA03F100D110BDE41A173C48055F
:1034C000C90AE4E701EB045110BD491001EB0451B6
:1034D000BDE810404FEA300002E04FF000017047B5
:1034E0004A0008BF0042F8D0B2F5001F28BF70475D
:1034F00001F000414FF0000070479EEA445F07D0A2
:1035000011EA5E0FBDE8104004BF002100207047A3
:10351000BDE8104070B5FFF7D9FD00BF40DFF63EB3
:1035200083F00041104670470000E0FF43004FEA7F
:10353000D30C4FEA3C0C43401FBF40070CF16051D5
:1035400013F0FE4F70471CF0006F03D100200CF009
:10355000004170470CF0004343EA507010B540EA58
:10356000CC0000F0EAF900BF000000924FEA000131
:10357000FFF7FABD4FF000414FF00000A1F5002128
:103580007047000090EA010F48BF81F0004100F150
:103590002682421A3CBF801A89184FEAD0524FF057
:1035A0007F4C1CEA410FA2EBD15318BF9CEA026F7B
:1035B00000F03B804FF0004C4CEA00204CEA012127
:1035C00021FA03FC10EB0C0C1ED202F1FF325FEA71
:1035D0001C2040EBC25038BF70471CF07F0F4FEAF1
:1035E000400C18BFBCF17F4F38BF7047C3F12003B8
:1035F000994008BF20F00100BCF17F4F38BF7047F1
:10360000A0F1C04000F0DFB94FEA3C00000A40EBF7
:10361000C25028BF1CF0FF0F4FEA400CE6D018BF85
:10362000BCF17F4F38BF7047EAE79CEA026F05D0D4
:1036300010EA5C0F08BF00F00040704710B500F0C2
:103640007CF900BF64FBBE3E014800F036BA00BF03
:103650000000C07F4FF47F0C1CEAD0121EBF1CEA92
:10366000D11392EA0C0F93EA0C0F00F0858090EAD8
:10367000010F48BF42F4807240F4000C41F4000096
:103680002CF07F4120F07F4000B58142A2EB030285
:103690000FF2081CACEB504EC0F100009EF800E0A9
:1036A0004FEA4E0E00FB0EFC38BF49004FEA2C1CBF
:1036B00002F5FA020CFB0EF34FEACE1E4FEA112C74
:1036C0004FEAC1210EEB635E42EB22420EFB0CFC83
:1036D0004FEA1C5300FB03114FEA112C4FEA013152
:1036E0000EFB0CFC4FEADC4C00FB0C11C14228BF66
:1036F00009184CEB03335DF804EB10EB410143EB8D
:10370000C250B2F57C0F38BF704729D512F0F00FC8
:103710001CBF00F1C04000F0004070470081828370
:103720008485868788898B8C8D8E8F9192939596D0
:1037300097999A9C9D9FA0A2A3A5A7A8AAACAEB05A
:10374000B2B3B5B7B9BCBEC0C2C5C7C9CCCED1D45F
:10375000D7D9DCDFE2E6E9ECF0F3F7FAFE0000008F
:103760004FEA400C0CF1807CBCF17E4F28BF7047C3
:10377000B0F1C04000F027B990EA010F0CEAD11374
:1037800048BF42F48072624538BF634507D213F4E4
:103790007F0F16D080EA010000F00040704710B59E
:1037A00000F0CBF8097EFC3E00F005B880EA01008D
:1037B00000F00040704780EA010000F0004000F097
:1037C00002B912F47F0F04BF0248704780EA01007B
:1037D00000F0F9B80000C07F41000B0ED3F19E024B
:1037E00008D950F400034FEA032323FA02F048BF3C
:1037F0004042704710B500F0A0F800BF4992248005
:10380000002070476FF0004282EA200070470000FD
:10381000B0FA80F310FA03F2C3F19D030AD0D90580
:1038200001EB1220530638BF704700F1010008BFBA
:1038300020F00100704700004FF47F0C1CEAD0120A
:103840001EBF1CEAD11392EA0C0F93EA0C0F00F092
:10385000478090EA010F48BF42F480724FF0004C5D
:103860004CEA00204CEA012102EB0302A0FB011309
:10387000A2F50002002918BF43F001035B0028BF36
:103880004FEA330342EB22425FEA132C4CEBC25067
:103890002EBFBCEB436FB2F57C0F70474FEA036C51
:1038A000BCF1004F08BF20F00100B2F57C0F38BF1B
:1038B00070470BD582F0FF0212F5803FC8BF7047FA
:1038C00000F1C040D8BF00F00040704700F5000C88
:1038D0005FEA4C0C48BF7047B0F1C04000F073B8CD
:1038E00090EA010F0CEAD11348BF42F4807262459E
:1038F00038BF634504D280EA010000F00040704701
:1039000010B500F01AF800BF8900013E00F007B8BA
:1039100000F009B85FEA410C5FEA1C6C08D080EA4D
:10392000010000F050B85FEA400C5FEA1C6CF6D171
:103930004FF00040A0F5800070470EF1020E2EF00F
:10394000030E5EF8044B244204D44FEA4102B2F164
:103950007F4F11D84FEA4003B3F17F4F0CD80ED1FF
:103960004FEAD07CB2F17F4F0CEB4C0C0CF1020C07
:1039700008BF4CEBD17C04E04FF0080C01E04FEAAB
:10398000D17C0CEB4C0324FA03F404F00704B4F1EB
:10399000040C06D20EEB840CBDE810404CF0010C78
:1039A0006047DFE80CF0070802024FF00040A0F586
:1039B000800010BD0846420018BFD2F1807288BF57
:1039C00000F0004010BDFF2141EAD050C005704713
:1039D00090EA010F48BF81F000413FF5DAAD421A8D
:1039E00004D882F00042A0EB020011444FEAD0520A
:1039F0004FF07F4C1CEA410FA2EBD15318BF9CEA59
:103A0000026F4AD04FF0004C4CEA00204CEA0121F2
:103A100021FA03FCB0EB0C0C0FD412F0FE0F36D0E1
:103A20005FEA4C001DD5001240EBC25038BF704712
:103A30001CF03F0F18BF70470BE0A2F101025FEAD4
:103A40001C2040EBC25038BF70471CF07F0F18BFDE
:103A50007047C3F12003994014BF401E20F00100BD
:103A6000704780084FEA122308BF7047B0FA80FC05
:103A7000A2EB0C02CCF1280C60FA0CF093EA122FA6
:103A800004BF00EBC25070474FEAC3707047130A7F
:103A90005FEADC1008BF7047F6E79CEA026F04D0CB
:103AA00010EA5C0F08BF0020704710B5FFF745FF14
:103AB00040DFF63E81F0004070470CF00F03092B09
:103AC00008BF082000F07F800A2B0BD0082B18BFFE
:103AD000704708BF1CF0400F0AD04FF000004FF0B5
:103AE000000170471CF0400F18BF4FF000407047B6
:103AF0001CF0100F08D020F0704300F07F4242EA23
:103B0000D3014FEA4370704700F0604021F07F42DC
:103B100042EA000201F07F4040EA727070474FF0C5
:103B2000FF0C4CF4E06C1CEA11531CBF9CEA030C24
:103B30009445C2BFDA4201EB02517047002B0DD011
:103B4000BCF1000F0FD0002A01F00041A4BF41F0EA
:103B5000E04141F07F614FF00000704701F000410B
:103B60004FF00000704750EA01334FF09B0C18BF34
:103B70004CF0806C7FF446A870474FF0FF0212EAC9
:103B8000D0521CBF92F0FF038B42C2BFD14200EB68
:103B9000C1507047002A0AD0002B0BD0002900F03A
:103BA0000040A4BF40F0FE4040F40000704700F029
:103BB0000040704743024FF00B0C18BF4CF0806C74
:103BC0007FF442AD70471CF4801F11D01CF4E02F2D
:103BD00003D06FEACC31490070474FF04050EFF30B
:103BE000008222F0704242EA000282F300887047AD
:103BF0004FF00000704701020203040506070809A0
:103C00000A0B0C0D0E0F1010000000000000000049
:103C10000102030406070809000000000102030472
:103C20004C5555555555A53F7751C1166CC156BFDA
:103C30009015CB19A001FA3EAD529C804F7E92BEEA
:103C4000C4B1B4BD9EEE213ED43888BEE9FAA8BD09
:103C500000004054FB21F93F3163621A61B4D03D4A
:103C60000000601A61B4D03D7370032E8A19A33B23
:103C70000000002E8A19A33BC14920259A837B3975
:103C800000000000000000006E83F9A22915444ED8
:103C9000D15727FCC0DD34F5999562DB4190433C58
:103CA000AB6351FE61C5BBDE3A6E24B7E0D24D4234
:103CB000EA2E49061C92D1091CEB1DFE3EA729B134
:103CC000F53582E88444BB2E26709CE9417E5FB4C2
:103CD00039D69139F43953838B5F849C3B28F9BDE5
:103CE000FF97F81F0F9805DE8B112FEF1F6D0A5AF3
:103CF000CF7E366DB709CB27663F464F2DEA5F9ED4
:103D0000C7BA27757BF1E5EBF739073DEA92528A8E
:103D1000B15FFB6B085D8D1FA6F810111111813F7B
:103D2000D561C119A0012ABF7DFEB157E31DC73E71
:103D3000EB9C2B8AE6E55ABE7CD5CF5A3AD9E53DB5
:103D4000603D00080000002020000000280100085D
:103D5000803D00082000002080070000440100088A
:103D60000100000000000000010000001000000041
:103D7000000000000024F40000000000000000002B
:04000005080000ED02
:00000001FF
